:10000000002C0020F5280000F1280000F128000055
:1000100000000000000000000000000000000000E0
:10002000000000000000000000000000F1280000B7
:100030000000000000000000F1280000F12800008E
:10004000F1280000F1280000F12800006D0E0000EA
:10005000F1280000F1280000F1280000451F0000F1
:10006000F1280000F1280000F1280000F12800002C
:10007000F1280000F1280000F1280000F12800001C
:10008000F1280000F1280000F1280000F12800000C
:10009000F1280000F1280000F1280000F1280000FC
:1000A000F1280000F1280000F1280000F1280000EC
:1000B00010B5064C2378002B07D1054B002B02D03E
:1000C000044800E000BF0123237010BD2001002080
:1000D000000000006432000008B5084B002B03D07C
:1000E0000748084900E000BF07480368002B03D019
:1000F000064B002B00D0984708BDC046000000000A
:10010000643200002401002064320000000000007E
:10011000EFF3108072B6BFF35F8F034B00221A70AB
:10012000434258417047C04618010020024B1A78DC
:10013000013AD2B21A707047D0030020044B1A78EB
:10014000013AD2B21A701B78024B00221A70704723
:1001500046010020D6030020002070470020704791
:1001600010B50F4B0F4C0020207018800E4BA122B1
:100170001A7020225A7002220C4958809880DA8026
:100180001881E1235B020B600823087148718B71B1
:10019000074B9847237801200133DBB2237010BD51
:1001A0006A060020D0030020DC0300203C01002070
:1001B0002D30000008B500200149024B984708BDCA
:1001C0003C0100202D300000002805D0034B012207
:1001D0001A70BFF35F8F62B67047C04618010020E7
:1001E000124B60211A7850B20A40002809DA002028
:1001F000202A1AD15A78212A17D1DA88072A14D14D
:100200000FE00020202A10D15A78202A04D0101C98
:1002100022384242504108E0DA88072A05D10449D1
:10022000196104499A819960012070477009002082
:10023000B50100003C010020F7B5364B1A78002AC2
:1002400066D1354CA047354D2C8800280FD0344B53
:10025000984784425CD0334B9847334A334B1478E9
:10026000071CE4B26100C95A002919D101E0304BE2
:10027000EEE7304E28493388013333808847002821
:1002800006D13388632B03D8381C2B4B98473FE0AB
:10029000214A9047002803D03288284B9A42F3D94C
:1002A000244B00221A80264B1B78934205D16342CF
:1002B00063411D49DBB20B7002E063425C41E4B272
:1002C000144A01231370381C1B4B9847174B6700C7
:1002D000DE5B413EFF3E731E9E41F6B2002E09D00A
:1002E0000D498847002801D00D4B00E0104B98477E
:1002F000288000E02E800D49A20124021419CB5B56
:10030000104A1149121900918120311C0F4CA0474D
:10031000F7BDC046D8030020C5140000D403002058
:10032000D9140000110100004701002048010020FD
:10033000C914000044010020C90100001F0300008F
:10034000690600204C0100205D03000055170000E5
:1003500008B5014B984708BD3902000008B50028D0
:100360000CD1074B1A7853425A41064B5200D052D7
:10037000054B1870054B1870054B984708BDC046D3
:10038000470100204801002069060020D803002012
:100390003902000010B5074B9847074A074B1B88E6
:1003A0001178074A49008C5AE41A064B9847201CDA
:1003B00010BDC04611010000D7030020D203002069
:1003C000CC030020C901000008B5034B9847431E29
:1003D0009841C0B208BDC04695030000F0B5194B66
:1003E00085B098471849194A0C781578E4B2EDB2EF
:1003F000002D08D1164E670033880393154BFB5A26
:10040000039FBB4203D9144B9847002018E0358066
:1004100066426641F6B20E700F4F01261670B8475D
:100420000E4B281C9847A2010D4B240214190D4AAB
:100430000093A02312190220311CB3400A4CA0479C
:1004400005B0F0BD11010000D703002068060020B0
:10045000D2030020CC030020C9010000C903000022
:10046000F1040000E80300205517000038B5134BD5
:10047000134D00242C701C70124B1C70124B1C70FE
:10048000124B1C805C80124B1C80124B9847124B05
:100490001C70124B1C70124B1C80124B1C80124B98
:1004A0009847A04209D02B780133DBB22B702B7810
:1004B000DBB2012B01D10D4A137038BDD8030020E7
:1004C0004601002069060020470100204801002065
:1004D000D40300203902000068060020D703002062
:1004E000CC030020D2030020DD030000D60300204F
:1004F00013B500281CD10F4B1B785C426341DBB263
:1005000000290ED199011B02CB180B49101CCB18E6
:100510000A491A1C0091A02301218B40084CA047D6
:1005200006E0084A5B009952074B1870074B984742
:1005300013BDC046D7030020E8030020F1040000EB
:1005400055170000CC03002068060020DD030000E2
:1005500008B50020014B984708BDC046C9030000FC
:10056000F7B5194B00269B79093B5A425341DBB240
:100570000193164B9847164B164F3C881D78164B27
:100580009847EDB2154B6A00D35AA4B2A34205D8DE
:10059000134B1878C0B20028EBD113E0AB012D0249
:1005A0005D19104B2D19EB5C01341E43A4B20E4BA8
:1005B0003C809847019B002B03D000233602019317
:1005C000D7E7301CFEBDC0463C01002011010000F1
:1005D000D7030020D2030020C9010000CC03002073
:1005E000D6030020E8030020DD03000038B5114BDE
:1005F0009847114A114B1178C9B24C00E45AA02314
:100600005B009C420FD10E4B1B78002B0BD10D4D84
:100610002B78DBB2002B06D101242C704C426141B7
:10062000C9B211701C1C084B9847A0204000001B49
:1006300038BDC046110100004701002048010020DC
:10064000D803002069060020C901000008B5034B4B
:100650009847431E9841C0B208BDC046ED05000052
:1006600008B50020014B984708BDC0464D06000064
:10067000F8B5154B0C1C9D79093D6B425D41EDB2FF
:100680000020124B9847002805D1114B1878C0B2B2
:100690000028F5D117E00F4B98470F4B0F491B78F7
:1006A000DBB25E00725A571C775299011B02CB18BD
:1006B0000B499A180B4B54549847002D02D0241222
:1006C0000025DDE70120F8BD3C0100204D060000BB
:1006D000D60300201101000047010020480100203E
:1006E0004C010020C901000008B5011C014B00208D
:1006F000984708BD7106000008B5034B58887F2352
:100700001840024B984708BD70090020D51800001A
:1007100030B5144B1A7800239A4221D0124B1B6833
:100720001B681A79824201D8002319E00F4A13602E
:10073000DC789D7824022C431C199C420ED95D78EC
:10074000042D08D19D78854205D1DD788D4202D1F6
:100750001360012304E01D785B19EEE71360E3E703
:10076000181C30BD750600206C060020780600209D
:10077000094B1B681B68DA78997812020A439B18A8
:1007800002788018834205D94278042A02D0052ACB
:10079000F6D100E0002070476C06002038B5104B01
:1007A000051C9847002801D1002018E00D4B1C685B
:1007B000201C0D4B9847041E0AD06279237912023F
:1007C0001A438078E178094B98470028F0D1EBE78D
:1007D000074BAD001B685B68EB581B68984738BD3A
:1007E0001107000078060020710700003D15000089
:1007F0006C060020F8B500210F4F051CB847041EF9
:1008000018D00E4BAA001B685B68D658F36898474F
:10081000011C281CB847041E0CD0094B1D68281C5D
:10082000084B9847051E03D08078074B9847F6E79A
:1008300073689847201CF8BD110700006C06002063
:100840007806002071070000E914000008B5014B8C
:10085000984708BDA119000038B50C4B00241A7840
:100860001D1CA24205D100232B70094B01221A80C6
:1008700038BD084B1B681B681B79A342F3D9201CA9
:10088000054B01349847E4B2F3E7C04675060020F3
:10089000720600206C060020F507000008B5024B28
:1008A0009847024B984708BD051A000059080000F8
:1008B00010B50B4B00241B78A3420FD0094B1B68CB
:1008C00019680A79A24209D95B68A200D3581B694A
:1008D000002B00D098470134E4B2EFE710BDC046CA
:1008E000750600206C060020F8B5A44C0023A381F7
:1008F00023616361237858B2002803DAE288002A72
:1009000000D1B2E16021194000D065E11F2200282A
:1009100000DBA9E0E588002D00D15DE1134067D13F
:100920006378062B09D0082B5DD0002B00D053E153
:10093000022D00D050E1924892E06088050A022D15
:100940000CD006D8012D00D046E18E4B18680178F6
:1009500040E0032D1FD00F2D13D03DE1894BC0B2D5
:1009600019684A7C824200D836E15B68C000C058F2
:10097000C178837809021943834B9847A268557060
:100980002AE0804B9868002800D125E1C17883785F
:10099000090219431EE0C0B2032800D91CE102F08D
:1009A00051FB070004000A0061011D21774A04E0A1
:1009B000774804210EE0774A1021002376485D0035
:1009C000D65C451901336E80DDB28D42F6D3490005
:1009D000023101706C4B9847E388A2899A4200D893
:1009E000CAE0A381C8E0012D00D0F5E06B4837E0F4
:1009F000012B25D163780A2B00D0EDE0012D00D02A
:100A0000EAE0664B1B78002B00D1E5E0644B2679C9
:100A10001F683A681379B34200D8DDE0301C614B9F
:100A20009847051E00D1D7E07B68B600F358DB6815
:100A300098475D4B01211870181C534B984799E05B
:100A4000022B00D0C8E06378002B00D0C4E0022D58
:100A500000D0C1E0554B20799847554B1880181CA1
:100A6000291C494B984787E013404DD160780138E5
:100A7000082800D9B0E002F0DBFA0CAFAFAF05AF49
:100A8000AFAF1A00E388002B00D0A5E0494B2361EB
:100A900072E0E388002B00D09EE06388012B00D039
:100AA0009AE0374B02211A888A431A8064E0E5886D
:100AB000002D00D090E0404B9847002800D18BE0FB
:100AC000304EA27831684B7C9A4200DD84E03B4B8B
:100AD0009847A378314A1370002B4DD03849304ADB
:100AE0005B187168DB00CB181360161C33681B6839
:100AF0001B79AB4240D9281C0021324B9847002873
:100B00006AD00135EDB2F1E7012B15D163780B2BDB
:100B100062D1E388002B5FD1204B1B78002B5BD088
:100B20002579294B281C66889847002854D0F1B2B3
:100B3000281C244B98471CE0022B4DD16378012BD5
:100B400002D0032B09D047E0E388002B44D163880F
:100B5000002B41D120791D4B0AE0E388002B3BD1CB
:100B60006388002B38D12079194B98472079194B8D
:100B70009847051C002D2FD0012077E07009002038
:100B800072060020A4000020F518000039000020A3
:100B90009400002028000020580000207506002046
:100BA0006C060020110700007406002009160000E2
:100BB00070060020F9060000E51800005908000042
:100BC000FFFFFF1F9D070000F50700001917000039
:100BD000891400001D16000022781F231340012BEA
:100BE0001ED1234B1B78002B1AD0224B25791E686F
:100BF00032681379AB4213D9281C00211E4FB84725
:100C000000280DD07368AA00D658F3689847011CD5
:100C1000281CB847002803D0B36898470028ABD1F8
:100C200022781F231340022B1FD1114B00241B7865
:100C3000002B1AD00F4B1B6819680A79A24214D9ED
:100C40005B68A200D558E96888470B4B011C201C43
:100C50009847002809D0AB68984700288CD1013408
:100C6000E4B2E7E70421054AA7E60020F8BDC04644
:100C7000750600206C0600201107000026320000D7
:100C80000368987AC009704770B50C4B0822056854
:100C9000041CDA67201C0A4EB0470028FAD12B88C2
:100CA000022293432B8020756075201CB0470028DA
:100CB000FBD12B88012213432B8070BD04E100E09F
:100CC000810C0000F8B50668071C0D1C141C381CAC
:100CD0000F4B98470028FAD13A79002A0AD01A23F4
:100CE000012A12D11723012C0FD80634A400A551D4
:100CF000031C0AE01723022C07D806498D4204D8AA
:100D00000C34ADB26400A553131C181CF8BDC046CA
:100D1000810C0000FFFF0000F7B52D4B0160151C92
:100D20009A6920210A439A6101A90223041C0B70CD
:100D30000420284B98470420274B9847274B201C1A
:100D40009847AB7823712B796371254B1C602B88F6
:100D500026683380AB78002B16D01720012B36D1B4
:100D600033889BB23380EB78002B03D0338880220A
:100D700013433380201C1B4B9847021EFAD1201CC2
:100D8000A968194B984719E033880422134333802C
:100D9000EB781720002B1AD1201C124FB847021EE7
:100DA000FAD1201CA968104FB847201C0D4B98475A
:100DB0000028FAD1201CE9680122B8472B790020CD
:100DC000834204D072888023DB0113437380FEBD0D
:100DD000000400400128000079270000890C000071
:100DE00044070020810C0000C50C000070B5037999
:100DF000041C05680E1C1520002B05D1201C034B7C
:100E000098470028FAD1AE8270BDC046810C000020
:100E1000031C022A0CD00079002805D0012805D136
:100E20001720012A0FD803E0022A01D917200AE06F
:100E3000901C8000C1500120197D9040021C0A4383
:100E4000D2B21A750020704710B5036880220229BB
:100E500003D001228A4003242240DA710122437D1B
:100E60008A40111C1943C9B2417510BD38B5114BE8
:100E70001B68597D1C681A7D207A0A40E17901407F
:100E8000C80906D0510701D51B69984780232372F2
:100E90000EE00125294203D02A4208D09B6805E0D4
:100EA0000225294204D02A4201D0DB6898472572E6
:100EB00038BDC04644070020EFF3108072B6BFF380
:100EC0005F8F034B00221A70434258417047C0465F
:100ED000180100200F2303405B00C00918180238D6
:100EE00014235843014B18187047C0468006002051
:100EF000F0B58E7985B072B20D1C544B301C002AAF
:100F000046DA98470F2737400197028AC368029252
:100F10006D88041CED188368C560877C9D4221D0D4
:100F20005E1B4B4AB6B2964206D94A4B101C029938
:100F30009847474B5E1AB6B20023BA0706D5464B10
:100F4000301C029998478BB25A4253415A00A37CF5
:100F500002218B4313436268A37452193F480199DD
:100F6000331C0AE0B807C00F0AD0022362689F430F
:100F70003A480199A77452190023394CA04763E0FD
:100F800001239F432368A774002B5DD0291C59E0DF
:100F900098470F2333400293038A041C0193837CF8
:100FA0002F885A0710D5C268436801999B1803938C
:100FB0008068294B98470A1C02992A4B01398901FC
:100FC000C9180398284B9847E368FA18A368E260A9
:100FD0009A4200D9E360AA88BA422AD1E5689D42C4
:100FE00027D05E1B1A4FB6B2BE4206D9381C194B29
:100FF000019998477F1ABBB205E0301C164B019946
:101000009847761AB3B2019A1448184E93420BD2FD
:10101000A37C04221343029AA374013A114B920158
:10102000D2180299019B02E0626802995219B047F6
:101030000AE0A37C01229343A3742368002B03D00E
:10104000E1680020321C984705B0F0BDD50E0000C5
:10105000FF1F0000A1310000E1300000080800205F
:101060006D1E00004807002005320000B91E000078
:1010700010B5064B064C05221A70201C8021054B2A
:101080009847201C0021044B984710BDFB06002008
:1010900008080020F31D00000D1E000037B51E4B90
:1010A000041C9847226801AD80239372281C1B4BB7
:1010B000984703236B70291C201C194B9847201C50
:1010C0001849194B9847194D201C00210222184B32
:1010D000A84700210A1C201C164BA847164B201CB1
:1010E00000210122A847154D201C00210222A847FB
:1010F00000210A1C201CA847201C00210122A8470F
:1011000023680F4A19890A408021C9000A431A81BD
:101110000C4B00221A7037BD59080000111C00004A
:10112000211C000088090020011F0000A91A0000EE
:10113000951200004916000085110000F91A000000
:10114000FFF3FFFFFB06002010B5084B084C0322FD
:101150001A70201C0749084B9847084B00219A68D1
:10116000201C0B1C064CA04710BDC046FB060020EF
:101170000808002088090020011F000070090020D5
:101180006D1E000008B589790C4B4AB2002A08DAB6
:101190001B78012B02D10A4B98470DE0042B0BD191
:1011A00007E01A78022A02D104221A7004E0032A06
:1011B00002D10448044B984708BDC046FB060020F6
:1011C0004911000008080020F31D0000F8B51D4D6E
:1011D0001D4E2B88B4891D4FE41AA4B2002C1BD1DC
:1011E0001B4A11885B189BB21380F2889A4203D085
:1011F000184B1B78002B07D0174B04221A70381C91
:101200001649174B98471CE07369002B0BD0984781
:10121000002808D02C80B4893F2C04D90D4B002223
:101220001A70402402E00B4B01221A702B88B2681E
:10123000381CD2180021231C0A4EB0472B88E41812
:101240002C80F8BDF8060020700900200808002056
:101250007C060020FC060020FB06002088090020F8
:10126000011F00006D1E000008B5014B984708BD26
:10127000B1080000064B9A8C910605D4D968D0229B
:101280000A40D02AFAD102E0DA68D106FCD57047CC
:101290000008004070B5274E0C1C3378002B06D098
:1012A000254B1B69002B00D09847002333702388FF
:1012B000082B01D0214B2DE0214C1F4D23782B70A2
:1012C00063786B70E378A2781B02D3186B80637924
:1012D00022791B02D318AB80E379A2791B02D318C1
:1012E000EB80184B98470028E4D02B787F2B0DD942
:1012F000154B00211980154B221C198002233370D5
:1013000013484023134CA047134B03E0EB88002BFA
:1013100002D1124B98470BE00B4B002119800B4B6D
:10132000221C19800123337009484023094CA0472F
:1013300070BDC046FB06002070090020711000003F
:1013400088090020E90800007C060020F80600203B
:1013500008080020B91E0000CD110000491100004E
:10136000002805D0034B01221A70BFF35F8F62B6CD
:101370007047C04618010020F7B501AE114B041CA0
:101380001149301C04229847104B1D78A54217D0F4
:10139000002C08D00E4B375D98470E4BDA5D0132BA
:1013A000DA550D4B9847002D08D0094B755D9847CD
:1013B000084B5A5D013A5A55074B9847034B1C702E
:1013C000F7BDC046053200002B320000FA060020AF
:1013D000B90E00003C0700206113000038B5084C2E
:1013E000084D201C0621A847201C0421A8470221E3
:1013F000201C054B98470220044B984738BDC04637
:10140000080800208D1A00006D1A000079130000F2
:1014100038B50B4B98470B4C0B4B201C02219847BF
:101420000A4D201C0421A847094A0A4B201C06210A
:1014300098470621201CA8470320074B984738BD32
:1014400075120000080800208D1A00006D1A0000B7
:10145000DD1300004D1A00007913000010B5064C92
:101460000421201C054B98470221201C044B98475F
:101470000120044B984710BD080800208D1A000079
:101480006D1A00007913000038B5041C211C0A48AD
:101490000A4B98470A4B201C9847827C031CD107B3
:1014A00008D501201D6882439A74002D02D0D968A6
:1014B000221CA84738BDC04608080020A91D00000E
:1014C000D50E000000207047024B1B68188A80046C
:1014D000400D704708080020024B1B68188A80B234
:1014E0007047C04608080020F7B501AD041C0D4B3D
:1014F000281C9847201C0C4B98470C4F0026291C91
:10150000381C0B4BEE702C7098470F21321C214079
:10151000381C084B9847381C321C211C064B984736
:10152000F7BDC046111C0000891400000808002007
:10153000211C0000D11A0000851B0000F7B501AC8A
:10154000061C294B201C0F1C151C984726700023D5
:10155000082D1DD90123102D1AD90223202D17D9AA
:101560000323402D14D90423802D11D980235B003F
:101570009D4201D805230BE080239B009D4201D8AA
:10158000062305E0194B9D4201D900202AE00723DC
:101590006370301C164B98470323391C0582194091
:1015A000012901D1022304E0022902D00329ECD150
:1015B0000423104DE370211C281C0F4B9847041E78
:1015C000E3D10F21221C0D4B3140281C0C4FB84792
:1015D000221C311C0B4C281CA047281C311C01224A
:1015E000A0470120FEBDC046111C0000FF03000003
:1015F000D50E000008080020211C0000F10E00009C
:10160000A91A0000F91A000008B5011C014B024894
:10161000984708BDD51D0000080800200F2310B50D
:101620000340041C0020032B07D80448211C044B52
:101630009847201C034B9847012010BD0808002044
:10164000F31D000089140000F8B5284E3378012BF3
:101650003FD1274A274C0D881788A3897A199342CE
:1016600001DADD1BADB2A3682349D8192A1C234B2C
:10167000EF199847BBB21E4F3B80402D05D1204D3E
:10168000E1882A88D218914208DCA3816369002B83
:1016900002D0984700280AD01A4B1DE0A2899A422E
:1016A00010D16069002802D08047002804D10523AA
:1016B0003370154B984718E03A882B88D3182B8045
:1016C00000233B8000210C4A4023104C1048A047C7
:1016D0000BE0022B02D10F4B984706E0054B1B692C
:1016E000002B00D0984700233370F8BDFB06002084
:1016F000F80600207009002088090020053200004B
:101700007C060020491100001D160000B91E0000D3
:1017100008080020CD1100000F2370B50340061CFF
:101720000024032B0ED8084B9847084B051C311C8E
:1017300007489847AB7C0124DA0703D5A343AB7471
:101740002B689847201C70BDD50E00000D1E0000B0
:1017500008080020F0B51E1C0F2385B00340071CAD
:10176000029103920193032B01D9002596E04D4B82
:101770009847051EF9D14C4B381C98474B4B041C1D
:101780009847A27CD10702D5494B984786E00123B0
:101790001A43A274002804D0464A1370BFF35F8F27
:1017A00062B60023E3600A9B039A0298A17C23603F
:1017B00001236260184002229840914301430420B3
:1017C0008143A17479B2A660002930DA002E1AD0C4
:1017D000394DB6B2AE4205D9218A281C374B9847FD
:1017E0006E1AB6B202990023994206D0344B218A70
:1017F000301C98478BB25A4253415A00A37C0221B5
:101800008B43134304E00299002909D0A37C93433E
:10181000A3740199039A331C2A4C2B48A0473AE041
:10182000A27C9A43A2740A9A002A08D10CE0002EE6
:101830000CD1A27C0A999A43A274002904D00020FA
:10184000011C3A1C0A9B9847012527E01A4FB6B2A3
:10185000258ABE4206D9381C184B291C98477F1A86
:10186000BBB205E0301C164B291C9847761AB3B260
:101870001548164EAB420BD2A37C04221343019AA7
:10188000A374013A124B9201D21801992B1C01E06A
:101890000199039AB04745424541EDB2281C05B075
:1018A000F0BDC04609160000D50E0000B90E0000BC
:1018B0006113000018010020FF1F0000A13100008B
:1018C000E13000006D1E000008080020B91E000075
:1018D00048070020024B80221B6810439872704713
:1018E00008080020024B1B68987A7F231840704735
:1018F00008080020014B986099817047700900200A
:1019000008B5044B01201B681A8902431A81024B57
:10191000984708BD0808002079130000F8B5032097
:10192000164B9847164C01272368164E1A89201C1F
:10193000BA431A810421144AB047201C0021134ADB
:10194000B047391C201C124AB047124A201C022101
:10195000B047114D201C0421A847201C0021A84796
:10196000391C201CA847201C0221A8470B4A201C18
:101970000621B047201C0621A847F8BD79130000B6
:10198000080800204D1A00005D14000069120000D4
:101990009D100000111400006D1A0000DD130000FE
:1019A00073B50E4B984701AC061C0D4B201C984795
:1019B0000C4D00230C49221CA370281C0B4B98478C
:1019C000281C0B4B98470B4B984701200A4B984714
:1019D0000A4B9847301C0A4B984773BDB90E00005C
:1019E000552100000808002000500041652100003A
:1019F000311F000075120000791300001D1900004E
:101A00006113000010B5074B98470020064B98471C
:101A1000064B9847064B041C9847201C054B9847DB
:101A200010BDC0460119000079130000B90E000076
:101A3000391A000061130000034B1A78002A01D004
:101A400000221A707047C046FD0600200B1C2E3382
:101A50009B001A50044AAA235B004900895AC25AC3
:101A60000A43C2520020704730320000064B490042
:101A70000268CB5A9383AB225200815A1943815298
:101A8000026800201383704730320000054BAB2200
:101A900052004900CB5A815A994381520268002072
:101AA000938270473032000010B58C00A418343493
:101AB000A4000419411863605931044BFF310878C0
:101AC0009B5C03430B70002010BDC0463E320000FB
:101AD00010B58C00A418031C34345B18A40004193E
:101AE0000449002059336060FF33895C1A788A43C7
:101AF0001A7010BD3E32000070B50F230B40C418A1
:101B000061341F4DFF342678AD5C35432570002AC3
:101B10000ED10268002B02D1FF3203230FE05B01DC
:101B2000D31849B2FF330222002926DB012224E028
:101B3000012A0FD10268002B03D1FF320C239372CC
:101B40001CE05B01D31849B2FF330822002914DBE3
:101B5000042212E0022A05D102685B01D318FF3388
:101B600010220AE0032A09D102685B01D31849B2A6
:101B7000FF334022002900DB20229A72002070BD32
:101B80003E32000070B50F230B40C4181F4D613466
:101B9000FF34AE5C2578B5432570002A0ED102686B
:101BA000002B02D1FF3203230FE05B01D31849B2AF
:101BB000FF330222002926DB012224E0012A0FD173
:101BC0000268002B03D1FF320C2353721CE05B012F
:101BD000D31849B2FF330822002914DB042212E093
:101BE000022A05D102685B01D318FF3310220AE0F4
:101BF000032A09D102685B01D31849B2FF3340229E
:101C0000002900DB20225A72002070BD3E32000005
:101C100000230370437083700123C370704700007A
:101C2000F0B5021C0D78C8780F232B40ED0904286D
:101C300000D998E0146801F0FBF90308495D7A00C7
:101C400008335B010020E054A9E05D016419FF3412
:101C500066781C20770700D0A1E0677870263742AD
:101C600000D09CE011206070146808335B01E0181C
:101C7000402444711268D31880221A718A78484B24
:101C8000002A08D05A195468802000060443546082
:101C90005469204307E05A195068400040085060DA
:101CA00050694000400850615D194C78686807220F
:101CB0003C4B1440184024072043686049780A4090
:101CC000696912070B4013436B6162E058012418E5
:101CD000FF34002D07D0677870261C2037425ED174
:101CE0006078202612E066781C20770757D160784C
:101CF00002262FE058012418FF34002D10D06778F9
:101D000070261C2037424AD16078302630436070FC
:101D100010681A1C0832520182188020107122E0CB
:101D200066781C2077073AD16078032612E05801C4
:101D30002418FF34002D07D0677870261C20374206
:101D40002DD160784026E1E766781C20770726D100
:101D5000607804263043607010681A1C0832520103
:101D60008218402050715B005D190D4B48782D01A1
:101D70005B19072210405C680A4A000722400243B0
:101D80005A608878002806D05968802212060A43D3
:101D90005A60002003E05A68520052085A60F0BDB1
:101DA000C8090020FFFFFF8F0F230B400268083394
:101DB0005B0149B2D218002905DA8021117102684D
:101DC000D318022204E0402151710268D318012285
:101DD000DA7170470F220A400368083252019B18DB
:101DE00049B29879002901DA800600E0C006C00FE8
:101DF00070470F220A4003680832520149B29B180B
:101E00002022002900DB10225A71704730B50F22C2
:101E10000A404CB201685301C918FF31CD79002C3A
:101E200011DA2024254220D04C710168CB18FF33F1
:101E30001C7A40210C4218D01972036808325201F2
:101E40009A18022310E0102425420ED04C7101682C
:101E5000CB18FF331C7A20210C4206D0197203687C
:101E6000083252019A180123137130BD70B50D1C50
:101E7000046808356D012E5D1C247606760F14D09B
:101E80000B4C490161180A610C1C0A4A49690A4055
:101E900062619A046369920C9B0B9B031343636119
:101EA000036800245D1980236B71201C70BDC0463F
:101EB000C8090020FF3F00F0F0B50D1C046808358C
:101EC0006D012E5D1C24770713D00B4C49010A517C
:101ED00061184C689A04094B1209234013434B6064
:101EE0004B6800249B0B9B034B6003685D194023E8
:101EF0002B71201CF0BDC046C8090020FF3F00F038
:101F0000094B0A4A196059680A40802189020A432C
:101F10005A605A68920B92035A6003684022FF335A
:101F200000205A717047C046C8090020FF3F00F0EA
:101F3000036802211A780A431A7002689378022B08
:101F4000FCD07047F0B57E4C85B0206802681378ED
:101F5000DB0900D0F2E0118C8FB2002F4CD1AB2303
:101F60005B00C65A958BAA235B00ADB2C35A2E40C4
:101F70001E40744B7A00D35A1D4202D02268126868
:101F800093831E420FD07049062F06D16F4B1A89DA
:101F9000802312095B0013400B603B1C20682E332A
:101FA0009B001B5898470137072FE2D1C6E01E1C43
:101FB0000836B025009674016D00C618751959369B
:101FC0001419FF36B4460294E4792E7803956546D9
:101FD0002D78E4B22E40351C60262540344212D1C3
:101FE000102634422AD10C2634423AD1A60776D1A3
:101FF0000133082B00D1A1E03C1C1C410125D9B2C2
:102000002C42F5D0D3E75C011219FF32167A402436
:10201000264204D0147280225242114304E0167A00
:102020002024264202D01472494A9171602215423E
:1020300000D183E01B01C318DC337CE0029F0399CD
:10204000FE710A78324279D040495A018A185268A2
:102050001B0192043E49C318920CD8330A805B6876
:102060006BE05C011219FF32177A082637421DD047
:102070001672364A1419A67E02221834164202D06D
:10208000A6789643A670802252421143304A91713D
:10209000009902684F01D719FA7994074ED40C229F
:1020A00015424BD01B01C318D43344E0167A0427E1
:1020B0003E42F4D01772254A1219967A0224083249
:1020C000264202D09678A6439670214A91710099D3
:1020D00002684F01D719FA79D407E0D52EE05C01E8
:1020E0001219FF32177ABC46664602273E420CD0D0
:1020F000802617727642164A3143917113490C19A2
:1021000061698904890C518010E0177A01263742F1
:102110000CD016720E4A91710C490C196168890431
:10212000890C118061680901890C9180AF0705D085
:102130000D331B01C3185B680549984705B0F0BD16
:10214000100700203032000000070020C8090020DE
:102150000807002000220123027043708270C370C0
:1021600070470000F7B5171C634A00231360634AE9
:10217000051C1060624A29600C1CD169202001AE48
:1021800001430120D16106227370B070F3701820F2
:102190005C4B311C3270984706205A4A3070311C13
:1021A00019209047BB786846037069460620564B55
:1021B0009847564B062098472378012213432370F3
:1021C000A378D807FCD452490B685A0B1F231A4036
:1021D0009A4200D105221A409001268D4D4A324084
:1021E000024322850868820C13401F2B00D11D2357
:1021F000208D1F2213409043034323850B68072241
:10220000DB0D1340934200D103231340218D1A03A9
:10221000414B42480B401343238521783A787F2372
:10222000D2010B401343237079780123194023789E
:102230000422890093430B4323706062FB78012BD7
:1022400004D12B680C211A898A4306E0002B05D1A2
:102250002B680C241989A1430A431A818022304B30
:102260000021520098470023E918002204334A60F5
:10227000202BF9D1A918002310324B628B62CB625C
:102280000B63802AF6D12A1CA43213705370E9180C
:10229000081C0022A630AE31013302700A70082BF0
:1022A000F5D1131CE918B831002204330A601C2B45
:1022B000F8D1A918081C0023D430E0311032036093
:1022C000436083600B60802AF3D1AA225200AB5294
:1022D000AB225200AB52AC20EA1840001118613218
:1022E0000020FF32013308701070082BF3D10D4B22
:1022F00080221A60FEBDC04604070020100700209F
:10230000000400409D2800000128000079270000FB
:10231000246080003FF8FFFFFF8FFFFFC809002007
:102320001732000000E100E0094B196800290BD1C9
:10233000EFF31080074A002805D172B6BFF35F8F14
:1023400005490870012111701A6801321A6070473E
:10235000140700201807002018010020084B1A68F5
:10236000013A1A601B68002B09D1064B1B78002B21
:1023700005D0054B01221A70BFF35F8F62B670471C
:10238000140700201807002018010020F7B50023CB
:1023900001AC144E80270125A370211CBF0211201F
:1023A000114B657025709847B761211C11200E4BA9
:1023B00025709847B761211C9836082723200A4BBF
:1023C000257098473760211C1B20074B25709847C4
:1023D000002337600F202370211C034B6570984742
:1023E000F7BDC04600440041ED23000007B5802240
:1023F00001AB1A700A785A704A789A708A78191C58
:10240000DA70014B984707BD9D28000010B50C4BB2
:1024100002211A680A431A60196880229143094A06
:1024200089B29184101CC168064ACC06FBD5996814
:102430000020D162596891621B689BB2938410BDE1
:102440001C0700200008004070B50D4B45781E6A3F
:10245000817804780122402086431540AD01301C6C
:102460000A402843D10180229043021C0A430548B8
:1024700003212140090202400A431A6270BDC0468E
:1024800000080040FFFCFFFF30B5027A4389920646
:102490009B059B0D120C1A43124B5A60428881888F
:1024A000C4791143827922430A434178C9010A431E
:1024B0001A600278042A0BD1047BC189058A0A4874
:1024C000A40609042C43014021439960196806E0E1
:1024D000202A06D1028A9A6019688422D2000A430F
:1024E0001A6030BD1C0700200000FF0308B5082853
:1024F00028D800F09DFD122727100B18051E21007B
:10250000114B02211A6A0A431A6204E00E4B02219F
:102510009A690A439A61002015E00B4B02211A8A3E
:102520000A431A82F7E7084B02219A8A0A439A82E1
:10253000F1E7064B984706E0054B02211A780A435B
:102540001A70E8E7172008BD000800400D240000BD
:1025500044080040F0B5C223344EDB00B360344B76
:102560001E215A688BB08A4304210A435A6005A889
:102570000023438083714370072303733F2320228A
:10258000C3812C4B02701A68920E3F2A00D11F2281
:10259000294B2A491B689B059B0D8B4200D1284B78
:1025A00043810823C37180235B008380254B027223
:1025B0000382254B984701A8012300258370234BF4
:1025C000457005709847224B06209847214B984745
:1025D00002AC0323211C65702572657223700220F2
:1025E00020231D4D6360A84702201C4FB8471C4B99
:1025F00098472A1CF1680D4BC806FBD5998C8020A2
:1026000001439984174B002507211D72281C5D7218
:102610009D7201232170211C6360237265706572B5
:102620009047281CB8470BB0F0BDC04600080040DA
:10263000004000412460800028608000FF0300000B
:10264000FF01000080BBFFFF892400004924000037
:10265000ED240000752600009526000039270000B3
:102660000D24000000040040014B5878C009704759
:10267000000C0040054B08219A690A439A61044BFB
:1026800001221A701A78D107FCD470470004004068
:10269000000C0040F8B50C784B782402051C061C91
:1026A0000443002B02D08023DB021C434B7A002B17
:1026B00002D080231B031C434B68012B13D95E1EE1
:1026C0001E400222002E09D19A4202D20136520047
:1026D000FAE7360280232E435B0303E01E028023C9
:1026E0002E439B021C430B7A002B02D080239B03BA
:1026F0001C430C4FB8470028FBD10B4B98470B4BA2
:102700001D70B8470028FCD1094DAE60B8470028BD
:10271000FCD16A6880235B0213401C436C60054B4C
:102720009847F8BD6926000029230000080C0040E6
:10273000000C00405D23000038B5051C094CA04783
:102740000028FBD1084B9847084B1D70A047002874
:10275000FCD1074B8022596852020A435A60054B4C
:10276000984738BD6926000029230000040C00406A
:10277000000C00405D23000010B5074B041C984777
:10278000064B80221C70064BD20159880A435A809E
:10279000044B984710BDC04629230000020C00409E
:1027A000000C00405D23000038B50F4B041C984717
:1027B0000E4B0F4A1C700F4B598858880905104062
:1027C00058805C880C48090F20405880101C5C8899
:1027D000084A6504FBD45388090203400B43538025
:1027E000064B984738BDC04629230000020C004024
:1027F000FFF0FFFF000C0040FFBFFFFF5D23000064
:1028000010B50C78034B240204439847024BA4B242
:102810005C8010BDA9270000000C004030B5D478C2
:1028200000239C421AD11478802C03D080232406E4
:102830005B02234354780225AC4309D19478002CE1
:1028400002D18024A40201E0C024E40223434160B9
:102850005478013C012C01D80F4C2340A0248DB2A8
:10286000E4052C431C438462D0240D0C24062C4325
:102870001C438462D478002C0CD15C0305D593787A
:10288000012B01D1816100E041615378013B012BB3
:1028900000D8816030BDC046FFFFFBFF08B5031CB8
:1028A0000A1C4009D90903D10549C001401800E0BC
:1028B00000201F210B4001219940024B984708BD81
:1028C000004400411D2800007047000008B5044B7B
:1028D0009847044B9847044B9847044B984708BDCA
:1028E000552500008D230000C9280000C9280000DC
:1028F000FEE700001148124910B5884201D00023BC
:1029000001E0104B07E0104CCA18A242F9D2C4589B
:1029100004331460F7E70D4A191D043B934203D2B8
:1029200000221A600B1CF6E7094A0A4B7F218A43F2
:102930009A60094B9847094B9847FEE764320000BC
:10294000000000202401002020010020000C0020B5
:102950000000000000ED00E0B9310000652F00002C
:1029600008B51D4B1A6802321A601968FA22520122
:10297000914209D9194A1A4908201368C867997AF7
:1029800049B200290BDAFAE718683221154B98474B
:10299000002920D18022144B9202DA611BE01988B1
:1029A000022081431980136880221A720F4AC023C3
:1029B00008215B00D1500E4B984772B6BFF35F8F72
:1029C0000C4B00221A70BFF34F8F0B4A0B4BDA608F
:1029D000BFF34F8FFEE708BD38070020C80A00206C
:1029E00004E100E0E13000000044004100E100E0CB
:1029F0009D080000180100200400FA0500ED00E029
:102A000008B5074B08221A60064B98470028FBD0F0
:102A1000054B08221A600020044B9847C0B208BD3D
:102A200098440041510500009444004161050000B4
:102A3000084A80231B0570B5041C9361151C1E1CDD
:102A4000054B98470028FBD06E61201C034B98472C
:102A500070BDC0460044004161060000E906000068
:102A60000B4B0C4A1968914211D91A68D2B2002A4C
:102A700009D01A68012152085200494211801A688F
:102A800002321A60F1E7044B1B7DDA07FBD5704771
:102A90001C010020FF3F00000040004110B50B1C4E
:102AA00000225C1AA4B2844203D21C780133624033
:102AB000F7E7101C10BD0000F0B5944BC9B0587971
:102AC0006946087001381C2800D9F8E000F0B0FA17
:102AD0000F5A32F7F75DF7F7F7F7F7F7F7F7F7ADB4
:102AE00053869EC2F7F7F7F7F7F725F76B00002339
:102AF0004B7008238B704123CB7056230B715223EC
:102B00004B7149238B715323CB7150230B725F237D
:102B10004B7232238B720B24D2E05A7A00234B7013
:102B200002218A1A7A49D2006E461141B170F370BF
:102B30000424C5E09B7900224A70902B10D006D85F
:102B4000802B0BD0812B11D102238B7011E0912BA4
:102B500009D0922B0AD105238B700AE0012306E0ED
:102B600003248C70ACE004238B7002E000236946E0
:102B70008B700324A4E000234B70664A664B1A60F6
:102B800002249DE000234B70FAE79979DA7909066F
:102B900012040A43597A1B7A0A431B021A435F4BF9
:102BA00052001A602EE0597A002230290DD16E466B
:102BB000DB7AF1700221CB1A5549DB0019417270A2
:102BC000B27032717171B27106E068464270827003
:102BD000C170027142718271072471E08022D201BA
:102BE0004F4B197D188B2021FF3101431983910828
:102BF0004900D9614B4901321980FF328023DB0241
:102C00009A42EDD1002369464B70B9E79879DA7999
:102C10004249000210180C68434A80B2944208D816
:102C20000B68C018414B0860984700236A465370F0
:102C3000A6E70F3300228242F2D25D780C681E783C
:102C400014192D02640875196400ADB22580023292
:102C50000233F0E79879DB790002304A18186E46A3
:102C6000002381B27370304D1668CC1CA4B2AE4202
:102C70001DD98B4212D21568981C5D196D086D0024
:102C80002D886E463554156800AE5B195B085B00F5
:102C90001D8833182D0A5D70031CEAE7136800A82D
:102CA000C91803191160013B00221A7008E0834221
:102CB000F4D000AEF518FF26AE700133F7E700241C
:102CC0001B4D1B20A8471B4B260A1F78381CA84702
:102CD000F0B2A8471B235F4067407E40E0B2F7B2E6
:102CE000A8470E204740A8470026B3B2A34204D20B
:102CF0006946885DA8470136F7E769460E4B201CF8
:102D000098474740F8B2A84749B0F0BDE00A002014
:102D100001981E004C1D0000380700201C010020F7
:102D20000040004102A5FFFFFF3F0000612A0000B4
:102D3000312A0000360700209D2A0000F8B5002740
:102D40003D1C3C1C1F4B98471F49061C485501352C
:102D5000062CF7D8201C00F06BF904080C11171C86
:102D600023001B2E28D00025ECE7184B02241E70F0
:102D7000E8E7174B36021E800324E3E7144B0424D4
:102D80001A8816431E80DDE70E2E17D10027052472
:102D9000D8E70F4B01371B889F42D3D10624D1E7D8
:102DA000013DA8B20B4B98470025B04207D10A4B12
:102DB0001D600A4B9847F8BD0124C3E700252C1C71
:102DC000C0E7C046012A0000E00A002036070020C4
:102DD000340700209D2A000038070020B92A00008F
:102DE000094B0421DA690A43DA61084B2022198B66
:102DF000FF320A431A831A7DD10703D559681E2270
:102E00000A405A607047C04600040040004000413C
:102E10007FB500236A46164CD370138093700293DB
:102E20000393012313711349134B201C134E98472E
:102E300008222368326021688A7A52B2002AFBDBBA
:102E40001A8802252A431A80201C2A1C0C490D4B83
:102E50009847291C201C0C4B9847201C01210B4B28
:102E60009847C023AB40F2581202120AF2507FBDBD
:102E7000C80A002000140040190D000000E100E025
:102E800061290000110E0000490E0000ED0D000048
:102E9000F0B5294B85B09847284B1A7DD007FBD554
:102EA000274F69463A88274E0A81274A11886A4681
:102EB0005181318803AA1180244A11886A46D18140
:102EC000029907220A40012A31D01A8BD00530D44A
:102ED00059688022D2020A4301915A601A8B202538
:102EE000FF352A431A831A4C1A4ADC611A80197D6D
:102EF000124AC807FBD5108B284310831648D461AB
:102F00001080197D01200D4A0142FAD0138B1D4318
:102F10001583D461029B0724634018430290029BEF
:102F20003B6003980D4B30601380019951600C4B4E
:102F3000984705B0F0BDC04629230000004000417D
:102F40000040800004408000024080000640800075
:102F50000020400005A5FFFF44A5FFFF06A5FFFFD9
:102F60005D23000008B58022214B92029A618022E5
:102F700012059A611F4B08221A601F4B1A7852B231
:102F8000002A03DB1A7802218A431A701B4B1A7835
:102F9000D10611D41B789A060ED48023DB01188841
:102FA00017491A1C884207D01B6883F30888154B01
:102FB0009A60154B1B689847144B01221A70BFF397
:102FC0005F8F62B6124B9847124B9847124B984747
:102FD000124B9847124AC1239B00D058802100020F
:102FE000000AC9050143D1500E4B98470E4BFCE730
:102FF0000044004198440041001000403804004063
:10300000FFFF000000ED00E0044000001801002078
:10301000CD280000112E0000E12D00004D08000019
:1030200000E100E0912E00003D2D000070470000FF
:1030300002B4714649084900095C49008E4402BC4B
:103040007047C04603B47146490840004900095A18
:1030500049008E4403BC7047002934D0012300226C
:1030600010B488422CD301242407A14204D2814207
:1030700002D209011B01F8E7E400A14204D2814217
:1030800002D249005B00F8E7884201D3401A1A4394
:103090004C08A04202D3001B5C0822438C08A042CB
:1030A00002D3001B9C082243CC08A04202D3001B81
:1030B000DC082243002803D01B0901D00909E3E7FB
:1030C000101C10BC7047002801D00020C04307B47A
:1030D000024802A14018029003BDC046D90000007A
:1030E0000029F0D003B5FFF7B9FF0EBC4243891A9F
:1030F0001847C046002941D010B4041C4C40A446D7
:1031000001230022002900D54942002800D5404271
:1031100088422CD301242407A14204D2814202D246
:1031200009011B01F8E7E400A14204D2814202D266
:1031300049005B00F8E7884201D3401A1A434C0863
:10314000A04202D3001B5C0822438C08A04202D399
:10315000001B9C082243CC08A04202D3001BDC08C1
:103160002243002803D01B0901D00909E3E7101C02
:103170006446002C00D5404210BC7047002806D0A1
:1031800003DB0020C043400801E08020000607B4B4
:10319000024802A14018029003BDC0461900000079
:1031A0000029EBD003B5FFF7A7FF0EBC4243891AF5
:1031B0001847C0467047C04670B50E4B0E4D0024F0
:1031C000ED1AAD101E1CAC4204D0A300F358984772
:1031D0000134F8E700F036F8084B094D0024ED1AE9
:1031E000AD101E1CAC4204D0A300F3589847013424
:1031F000F8E770BD5032000050320000503200003D
:103200005432000010B50023934203D0CC5CC45468
:103210000133F9E710BD031C8218934202D01970E4
:103220000133FAE7704730303444000003020100F4
:103230000400080070008000010000010002030C7F
:1032400010600000F8B5C046F8BC08BC9E46704748
:10325000D9000000F8B5C046F8BC08BC9E467047CF
:04326000B1000000B9
:103264006D0400003D010000590100005D010000F3
:1032740051030000610100002D010000E101000084
:103284005D0100000000000041726475696E6F20EA
:103294005A65726F2050524F0041726475696E6FA7
:1032A4002073726C20287777772E41726475696E6B
:1032B4006F2E6F72672900000003000000000000F9
:1032C40000000000000000000000000000000000FA
:1032D40000000000000000000000000000000000EA
:1032E40000000000000000000000000000000000DA
:1032F4000000000004030904050F0C00010710027C
:1033040002000000C0000020B80000209800002047
:103314001400002000000020D4000020B000002091
:103324001201010202000040032A4D0000010102C3
:103334000301000009024300020100C03209040035
:103344000001020201000524001001042402020508
:10335400240600010524010301070583034000102E
:1033640009040100020A0000000705810240000070
:1033740007050202400000000100000000400000B8
:04000003000028F5DC
:104000000080002035430000FB410000FB41000020
:1040100000000000000000000000000000000000A0
:10402000000000000000000000000000FB41000054
:104030000000000000000000FB410000E94100001A
:10404000FB410000FB410000FB410000FB41000080
:10405000FB410000FB410000FB410000D54B00008C
:10406000FB410000CD490000FB410000FB41000086
:10407000FB410000FB410000DD490000FB41000066
:10408000FB410000FB410000FB410000FB41000040
:10409000FB410000FB410000FB410000FB41000030
:1040A000FB410000FB410000FB410000FB41000020
:1040B00010B5064C2378002B07D1054B002B02D0FE
:1040C000044800E000BF0123237010BD2C00002035
:1040D00000000000E06A000008B5084B002B03D088
:1040E0000748084900E000BF07480368002B00D1DB
:1040F00008BD064B002BFBD09847F9E700000000F5
:10410000E06A0000300000202800002000000000CD
:1041100008B50D20012100F09FF908BD10B5FA2463
:104120000121A4000D2000F041FA201C00F04CF801
:1041300000210D2000F03AFA201C00F045F810BDD7
:1041400038B5134D1349281C00F072FA1249134870
:1041500000F06EFA1249134800F06AFA1249134847
:1041600000F066FA1249134800F062FA124C134943
:10417000201C00F05DFA291C00220123104800F0E9
:104180008DFB211C242223230E4800F087FB38BD21
:104190000C01002000080042000C00421001002029
:1041A0000010004214010020001400420801002009
:1041B00000180042180100201C010020001C0042D1
:1041C00048000020A800002070B5002808D0041C7A
:1041D000044D2E6800F010F82B689B1BA342F9D900
:1041E00070BDC04620010020024A136801331360ED
:1041F0007047C046200100207047FEE71E210220C4
:1042000030B53F4A53688B430343536008223D490E
:104210008B6913438B613C4A3C4B9A829A8A0243D6
:104220009A82DA689207FCD50120394A107010781A
:10423000C00704D53648407840B20028F7DB01209B
:104240009060507840B20028FBDB324C304844602C
:10425000507840B20028FBDB82242D48E4014480E2
:10426000507840B20028FBDB8024988CA0439884CF
:10427000D868C006FCD5284C2448C462D868234CB2
:10428000C006FBD5A08C254D2843A084D8681F4CC0
:10429000C006FBD50225A08C2843A084D868000660
:1042A000FCD51A48C0684006F8D5D868C006FCD5C9
:1042B00000209060507840B20028FBDB184C144876
:1042C00044605078124C40B20028FADB1D6A154851
:1042D000284080251862186AA84318620323A36047
:1042E000114B636053785BB2002BFBDB00230F4A5A
:1042F0000B724B728B72CB720D4B1A6030BDC04685
:1043000000400041000400400C060000000800408E
:10431000000C004001050100B805FF7D040A000003
:1043200000070300FFFCFFFF03060100006CDC0236
:104330000000002038B51049104CA14206D101F010
:10434000F1FFFFF75BFF00F057F90BE00C4D002386
:104350008D42F4D0CA18E818A24204D2006804338F
:104360001060F7E7FEE7074B9042E8D0064A934219
:10437000E5D2002204C3F9E7000000202C00002051
:10438000006B00002C000020AC050020FA21264B19
:1043900010B51868890001F0B9F9244B013898422A
:1043A0001DD8234A23495060C0200B6A00061B0217
:1043B0001B0A03430B6200240723FC219460136053
:1043C0001D4B1A6A0A43FF211A621A6A09020A433C
:1043D000A0211A621A6AC9020A431A6200E0FEE7C3
:1043E000201C0021013400F037F8132CF8D1A02153
:1043F000124B134AC9005380124B02209980124974
:104400001961112199705870197801431970597EFA
:10441000C9090129FBD00D4B538041220C4B5A7026
:104420000C4A1A8110BDC04600000020FFFFFF00AB
:1044300010E000E000ED00E0000400401E4000003D
:10444000000C0040004000420018000F2140000016
:1044500000480042FF030000182370B508264343BC
:10446000204AD518AE57141C01363AD001291BD06A
:1044700000290CD0022934D19B561B4ADB019B1822
:1044800006226868191840310A70053A09E09B56FF
:10449000154ADB019B1802226868191840310A701E
:1044A000013A82405A601CE0182811D01823584362
:1044B0002356201802240C4A4068DB019B181A1866
:1044C00040321178A1431170012282409A6008E0C5
:1044D0000221064B1A780A431A70DA79D209FCD104
:1044E000E4E770BDAC6300000044004100480042B6
:1044F000F8B5031C182058432A4A1018007A40B215
:10450000041C01304BD0481C00240C2847D801F073
:10451000F3F8441919191919191919070707070088
:10452000181C092901D1002102E00A2903D1083908
:10453000FFF792FF22E000240B2930D10A39FFF760
:104540008BFF2CE018204343D01844680126251C1B
:10455000D3561548DB0162081B189A1835403032D3
:10456000002D0DD00F2015780901284001431C199A
:10457000C9B21170403423781E43267000240EE027
:104580000F2710781B19B8430143C9B2117040338B
:104590001A782C1C16431E7001E001246442201C72
:1045A000F8BDC046AC6300000044004118235843E6
:1045B000082330B50D4C2218D356013314D00425EE
:1045C00003570B485268DB011C18A01840300570D7
:1045D000002904D0012907D19140A16104E0012103
:1045E0009140044A9B18596030BDC046AC6300003E
:1045F000004400411044004110B5FFF7C7FE012000
:10460000FFF7E2FD084C201C00F0ACFA201C00F083
:1046100097FAFFF77DFDFFF781FD044B002BFAD0E1
:1046200000E000BFF7E7C0462C01002000000000BA
:10463000016070479446F0B505AC25789C1E621E5B
:10464000944162460768E4B23E6892073243260608
:1046500032433A60072206681140AA01114370688C
:10466000221E00D05A0301430A437260F0BD30B5E8
:10467000C0251205AD032A40C0250468AD02236899
:1046800009041A43294011432160026853682B43EF
:10469000536030BD0121026813680B431360026848
:1046A000012311681942FBD1D1691942F8D1704731
:1046B0000221026813680B4313600268D3699B07E9
:1046C000FCD470470268137EDB07FCD570470022DC
:1046D00003685A8370470368187E4007C00F70470D
:1046E0000368588B4007C00F70470368588B8007DA
:1046F000C00F70470368588B012318407047036848
:10470000188DC0B2704738B5051C0C1CFFF7DAFFD6
:104710002B68A4B201201C8538BD00000268224B22
:1047200030B59A4212D0214B9A4212D0204B9A4275
:1047300012D0204B9A4212D01F4B9A4212D01F48DF
:104740000023824210D10E2119330DE009211423D8
:104750000AE00A21152307E00B21162304E00C21AF
:10476000172301E00D21182301204AB29040144C78
:104770009208206003200140814092001219C02459
:10478000FC308840A40015598543C0208840011C96
:10479000294311518022D20113430A4A538053788E
:1047A0005BB2002BFBDB30BD00080042000C004276
:1047B000001000420014004200180042001C004299
:1047C00000E100E0000C0040F8B5041C0E1C151CB4
:1047D0001F1CFFF75FFF201CFFF7A0FF1C23B20088
:1047E00013406A072168120C13430B60842322686C
:1047F0009375012E26D11020002D03D00838022DEC
:1048000000D0053801F034FC051C381C01F030FCE8
:10481000011C281C01F05CF90B4B051C186801F009
:1048200027FC011C281C01F01BF8011CFE20800540
:1048300001F080FA054901F04BF900F0F9FF246816
:1048400080B2A081F8BDC0460000002000FF7F4775
:104850000120704710B5041C0069FFF71BFF201CE6
:10486000143000F05AFD10BD08B50069FFF72AFFAB
:1048700008BD08B5143000F062FD08BD08B514305D
:1048800000F063FD08BD08B5143000F04AFD08BD16
:1048900008B50069FFF737FF012008BDF8B51D1CFA
:1048A00000234360FA23041C9B008360074B0F1C0A
:1048B000083303601430161C00F019FD231C5C3310
:1048C0002761201C1E705D70F8BDC0463068000076
:1048D00010B5041C0069FFF7FEFE002807D0206910
:1048E000FFF70DFF011C201C143000F00BFD2069A8
:1048F000FFF7F6FE002809D12069FFF7F6FE002831
:1049000004D12069FFF7F6FE002802D02069FFF7E6
:10491000DEFE10BD0F2399433039081C4142484147
:104920007047002070470F2300201940012904D050
:1049300002394B424B410230C01A7047031CF0B59C
:10494000182585B003915C33041C18782B1C0821B2
:1049500043431A4F161CFB185956FFF7C9FD231C79
:1049600008215D33187845437F197956FFF7C0FD5C
:10497000039B002220690121FFF726FF311C201C28
:10498000FFF7CFFF311C071C201CFFF7CCFF311CA9
:10499000051C201CFFF7BEFF2B1C0090391C206952
:1049A0000122FFF747FE206901210322FFF75FFE86
:1049B0002069FFF77DFE05B0F0BDC046AC63000086
:1049C00008B51322FFF7BAFF08BD000008B502487A
:1049D000FFF77EFF08BDC0464800002008B502482A
:1049E000FFF776FF08BDC046A800002008B500F01C
:1049F00031FC08BDF8B5124B1B68002B02D1012019
:104A000040421CE0171C0D1C061C00F023FC041E79
:104A1000BC4200D93C1C2F19BD4205D0301C00F00F
:104A2000D3FB28700135F7E7002C07D0301C00F0CD
:104A300011FC002802D1301C00F016FC201CF8BD2F
:104A40003801002013B56B46DC1D211C0122FFF745
:104A5000D1FF012801D1207801E00120404216BD9C
:104A600038B50F4B1B68002B17D0051C141C00F029
:104A70008BFB02210B4A08356B019B18DA790A433C
:104A8000DA715A7982390A435A71064A6B019B18C6
:104A9000DB799B07F9D5201C01E00120404238BD9D
:104AA0003801002000500041F8B50F1C161C141CE2
:104AB0000025002C07D07919221C002000F064FB8F
:104AC0002D18241AF5E7301CF8BD012330B5A1B02C
:104AD0005A1E845C5A00002C06D08D1A002D03DD6E
:104AE0006D460133AC52F3E7C02369469B00134384
:104AF00000200B80FFF7D8FF431E9841C0B221B0C1
:104B000030BD08B50279002A04D100F099FC0028D4
:104B100009D106E00023022A06D100F00BFD00288F
:104B200001D000F095FA0123181C08BD10B5041C33
:104B300000F090FB002802D0201C00F09FFB10BD6D
:104B400010B50024054B1B68A34204D000F074FA92
:104B5000034B1C600134201C10BDC04628010020FE
:104B60003801002008B500F0D1F90122014B1A608C
:104B700008BDC0462801002008B502280CD1A22398
:104B80004021124A5B00D15400F064FB00281CD085
:104B90000F4800F023FC18E0032809D1B22280213D
:104BA0000A4B520099546821FF315A5C01380AE0DF
:104BB00001280AD192228021044B520099542821C5
:104BC000FF315A5C013002435A5408BD0050004185
:104BD00084040020F0B5AF4DA9B02C8C1026E4B2AF
:104BE000002C1BD120230827AE82AB821F3BAB8257
:104BF000AB8B3B420AD08023201CAB72211C00F0FF
:104C00002FFAA54B9E72A54B1C60AF8304232A8B01
:104C10001A4200D176E19F4A938373E19E4B1A7A40
:104C20000093D2B20292324200D153E1009B0020A5
:104C30001E7204A900F0FCFA40236020009A537110
:104C4000049B1E78304000D01CE15A78002A08D11D
:104C5000934B002E0BD108A90E704E70301C0232FF
:104C600005E1012A12D19B78012B0CD18D4B1B78C9
:104C70000122012B00D00022002008AB08A91A70E5
:104C800048700222F3E0864B1870F8E0032A11D135
:104C90009A78012A05D1834B08A91A70087000F090
:104CA00073FA049B9B78002B00D0F0E001227C4B30
:104CB0001A70E4E0052A03D1987800F0E9FAE6E0FA
:104CC000062A00D0A5E0DE78022E5AD1DB880193B7
:104CD00000F0B0FB071C00F0B1FB051C00F00AFC63
:104CE0004319039300F0AAFB051C00F003FC019B91
:104CF0002D180935AB4207D900F0A0FB051C00F0C8
:104D0000F9FB2A1809320192092605AD321C281C2C
:104D1000002101F036FB022303982E70801908AEA3
:104D2000321C6B7001332B71023B6B71BF33EB7123
:104D300068803A332B7203CD03C20025137000F054
:104D40007DFB854205D27A5D731901355A72EDB249
:104D5000F5E700F0CBFB0025071C00F0CBFB8542FC
:104D600008D200F06BFB7B5D72191018013543729D
:104D7000EDB2F2E7019A802A00D980220020311C8E
:104D800044E0222E02D100F0B9FB18E0212E1AD106
:104D9000092708AD00213A1C281C01F0F2FA012372
:104DA000AB70EB706B7121332F706E70AB7100F0D4
:104DB000A3FB291CE8713A1C0020FFF775FE431E77
:104DC0009841C0B261E0012E04D1DA883649112A37
:104DD0001AD816E0032E71D19A78002A05D13349EA
:104DE000DA880B7893420CD80EE0022A02D1D988D7
:104DF0002F4803E0012A61D1D9882E48FFF765FECC
:104E000043E0D2B2002A00D10A780020FFF74CFE1E
:104E10003DE0072A52D0082A03D100201F49073A53
:104E200025E0092A1ED1F30648D10420832100F091
:104E300017F90120822100F013F90220011C00F073
:104E40000FF90320832100F00BF9049B9A78134B90
:104E50001A602A230222FF33EA544A23013AFF331D
:104E6000EA540CE00A2A05D100201349093A00F05F
:104E70008BF90CE00B2A0AD19A780F4B1A6000F0DC
:104E8000E7F804E0181CFFF73CFE002816D000F0FD
:104E900075F916E000500041FF5000413801002034
:104EA00024010020340100207E6800007A680000A0
:104EB000606800006D68000030010020002000F0F4
:104EC000BFF94023029A1A4204D0009A1372009A42
:104ED000203B5371012300259C43E8B2002C11D0E4
:104EE000231C2B41DB070AD5074A6B019B18DB7992
:104EF0009B0701D0FFF740FE0123AB409C430135E7
:104F0000092DEAD129B0F0BD00510041202130B572
:104F100001243D4AD3690B43D3613C4A1A391378C3
:104F2000234313700F223A4B187890431870187867
:104F300008431870374801782143017019780A40F6
:104F400060211A701A780A431A70334B334A5A8018
:104F50005A7852B2002AFBDB0121314B1A780A43FE
:104F60001A709A782E49D207FBD402200A782D4C69
:104F700002430A7022681D30520B0240824200D167
:104F80000522024091011D8D274A2A400A431A85B5
:104F90002268920C02401F2A00D1023A1F20198D6C
:104FA000024081430A431A8507222168C90D114036
:104FB000914200D103210A40188D11031B4A02407F
:104FC0000A431A857F2219780C200A4004211A709E
:104FD0001A780A431A70164A5A621989814319814C
:104FE00000230020D11808608021203389018B42E2
:104FF000F7D1C1210F4A890053581B021B0A535095
:105000008023136030BDC046000400405844004176
:105010003C44004159440041000C0040064000005F
:1050200000500041246080003FF8FFFFFF8FFFFF2A
:10503000AC04002000E100E00121044B1A898A43FE
:105040001A8108221A83043A1A83704700500041DB
:10505000024A53699B0B9B0353617047AC040020C9
:10506000F0B5832911D1031C3D4A08335B01433954
:1050700099543C4A4301D3185C693B4AC001224021
:105080005A613A4A1018186168E002291ED1384B5B
:105090004401E1180323334D4B702B195E68324AEB
:1050A00080013240C026B60532435A60314A10189A
:1050B00060515868304A02408020400302435A60E1
:1050C0005A68920B92035A60402346E0822912D11B
:1050D000274A4301991830224A70224AC001D31846
:1050E0005D69214A2A40C025AD052A435A611F4AFD
:1050F0001018186130E0002930D11D4B4001C11853
:1051000011234026174F4B706F338E714B713B1834
:105110005A68520052085A605A69520052085A613D
:105120005C68114A1440C0229205944614435C60A6
:105130005C690D4A2240644622435A610D4AC251BD
:1051400058680D4A02408020C00202435A605A68E3
:10515000920B92035A608E7180234B71F0BDC04652
:1051600000500041AC040020FFFFFF8F3C010020F5
:10517000FF5000413C030020FF3F00F08022014B24
:105180009A717047FF50004170B5041C161C0B4DFE
:10519000C301ED18281C01F0EBF8094B64011C1940
:1051A00025616269074B301C13406361B3049A0C9C
:1051B00063699B0B9B031343636170BD3C0100203B
:1051C000AC040020FF3F00F070B5134D134B840179
:1051D00042012919D1509B185E681149314080263F
:1051E000B602314359605968890B890359600D4BE8
:1051F000D1180D4BD218402353710B1C0122FF33E1
:105200001B7A1342F9D0094B4001C018C3791343EC
:10521000C371285D70BDC0463C030020AC04002073
:10522000FF3F00F000500041FF500041005100419D
:10523000024B8001181808607047C0463C030020EC
:10524000034BC0B24001C018202343717047C046D1
:1052500000510041034B4001181840688004800C45
:105260007047C046AC040020034B4001C0184023E7
:1052700043713F3B03727047FF500041034B4001B5
:10528000C018802383717E3B03727047FF5000413A
:1052900002210B4A53699B0B9B035361094B1A7AFA
:1052A0000A431A729A7982390A439A711A7A9207D2
:1052B000FCD580235B421843034BC0B29872704701
:1052C000AC040020FF50004100500041F8B5071C1D
:1052D0000C1C00258E18B44207D03B6821781B684F
:1052E000381C984701342D18F5E7281CF8BD10B577
:1052F00000214022041C01F044F80023201C2364F8
:10530000636410BD3F23026C10B5541C2340446CF1
:10531000A34201D08154036410BD0023036443649D
:105320007047436C026C934206D03F21C25C01334C
:105330000B404364101C01E0012040427047036CA5
:10534000406C181A00D540307047436C026C934291
:1053500001D0C05C01E0012040427047034A136C59
:10536000506C181A3F2318407047C0463C04002078
:10537000054B196C5A6C914202D05A6C985C01E052
:10538000012040427047C0463C04002013B56B46E4
:105390000268D97107335468191C0122A04716BD51
:1053A00038B50D4B196C5A6C914212D03F215A6C92
:1053B000051C9C5C5A6C022001320A405A64FFF7BB
:1053C00015FB002803D02B68281C9B699847201CDC
:1053D00001E00120404238BD3C04002038B50C4DAE
:1053E0002C6C3F2301341C406B6C9C420FD002207C
:1053F000FFF7FCFA002803D10230FFF735FF06E083
:105400000220FFF71FFB2B6C2C64E854E9E738BD42
:105410003C04002008B50320FFF788FB08BD10B549
:10542000041C0320FFF71CFB002801D1012363604B
:1054300010BD000000487047B86800004220704767
:1054400010B50278041C4378A12A08D1212B2CD155
:10545000002017490722FFF727FB012026E0212A19
:1054600023D1202B0DD10020FFF7F4FE0E28FAD90E
:105470000023E218117A0E4A99540133072BF8D110
:1054800013E0222B11D18278094BDA719622196828
:10549000D200914209D1D8790123184003D1FA20D2
:1054A00000F018F901E000F01FF9002010BDC0461F
:1054B000040000200022044B5A60FA2292009A60F5
:1054C000024A08321A607047840400209068000085
:1054D000036870B59B68041C0E1C9847051C236864
:1054E000311CDB68201C9847E8B270BD004870474B
:1054F000A0690000192070476520704708B500209A
:1055000002496522FFF7D0FA08BDC046B96900001C
:1055100013B56B46141C187000235A1CA34204D008
:105520006846CB5C8354131CF7E769460420FFF7F9
:1055300097FA13BD08B50178031C4278A1290FD151
:105540000223111C9943081E012819D00020022AA9
:1055500016D10C49013AFFF717FEFFF70FFE0EE0D8
:10556000002021290CD10B2A04D19A78064B013056
:105570001A7005E00A2A03D1DA78024B1A7001206A
:1055800008BDC0460D0000200C00002008B5022018
:105590000822FFF7BDFF08BD10B5872902D9783171
:1055A000C9B21CE04BB2002B08DA012380398B40D2
:1055B000191C037A19430172002110E0194B595C40
:1055C000002903D10123436000202AE04BB2002BC5
:1055D00005DA0222037A134303727F231940837A88
:1055E0008B4219D0C37A8B4216D0037B8B4213D0E7
:1055F000437B8B4210D0837B8B420DD0C37B8B428D
:105600000AD00023C218947A002C01D1917203E0D1
:105610000133062BF6D1D5E7011C0831FFF7B6FFA1
:10562000012010BD2069000010B5872902D978310A
:10563000C9B219E04BB2002B08DA012380398B4044
:10564000191C037A8B43037200210DE0114B595C46
:10565000002399421BD04BB2002B05DA0222037AB9
:10566000934303727F231940031C021C0A33103238
:10567000002904D01C788C4201D100241C70013315
:105680009342F5D1011C0831FFF780FF0123181C5C
:1056900010BDC0462069000008B5011C0023083178
:1056A0008372C372037343738373C3730372FFF70D
:1056B0006DFF08BD0023044A1370044A5360044B75
:1056C000083313607047C046980400209C040020F3
:1056D0000069000008B5024B1860024B9847C046AD
:1056E00010000020E56A00000122024B52421A60BD
:1056F0007047C0461000002002B4714649084900B6
:10570000095C49008E4402BC7047C0460022430831
:105710008B4274D303098B425FD3030A8B4244D379
:10572000030B8B4228D3030C8B420DD3FF220902BB
:1057300012BA030C8B4202D31212090265D0030B7A
:105740008B4219D300E0090AC30B8B4201D3CB0370
:10575000C01A5241830B8B4201D38B03C01A5241B2
:10576000430B8B4201D34B03C01A5241030B8B42B4
:1057700001D30B03C01A5241C30A8B4201D3CB029F
:10578000C01A5241830A8B4201D38B02C01A524184
:10579000430A8B4201D34B02C01A5241030A8B4287
:1057A00001D30B02C01A5241CDD2C3098B4201D39F
:1057B000CB01C01A524183098B4201D38B01C01A1D
:1057C000524143098B4201D34B01C01A5241030994
:1057D0008B4201D30B01C01A5241C3088B4201D343
:1057E000CB00C01A524183088B4201D38B00C01AF0
:1057F000524143088B4201D34B00C01A5241411A17
:1058000000D20146524110467047FFE701B5002023
:1058100000F00CF802BDC0460029F7D003B5FFF731
:1058200075FF0EBC4243891A1847C0467047C046F0
:105830009E2110B5C905041C00F092FC002803D17C
:10584000201C00F0F5FB10BD9E21201CC90500F0B6
:1058500071FA00F0EDFB80231B069C466044F2E7E2
:10586000F0B556464D465F464446F0B44302450007
:10587000C70F83B08A465C0A2E0EB94641D0FF2E70
:1058800026D080231B042343DC00002398469B463C
:105890007F3E53465B025D0A53465A00DB0F120EF1
:1058A0009A4639D0FF2A33D080231B042B43DD00D6
:1058B00000237F3A5146B21A46467940081C0192AD
:1058C0001E430F2E00D976E07E4AB6009659B746A1
:1058D000002C30D108239846063B9B46D9E780230D
:1058E0000021DB03FF245B02E4055B0AC9072343B5
:1058F0000B43181C03B03CBC90469946A246AB46ED
:10590000F0BD002C28D104239846033B9B46C0E7FA
:10591000002D1FD1022302E0002D11D10123B21A64
:1059200050464646784001921E430F2E27D86649BE
:10593000B60089598F460C239846093B9B46A8E739
:10594000281C00F017FC7622431F52429D40121A79
:105950000023AFE70323ADE7201C00F00BFC431F3F
:105960009C4076235B421E1A002398469B4690E794
:105970000025D1469B465B464846022B6FD101214C
:10598000FF2401400023AEE77E23019A5B429B1A6D
:105990001B2B6DDD01214B46194000240023A2E79B
:1059A0008023DB031C4249D18023DB0323435B02BA
:1059B0005B0A391C96E763016D01AB4237D3894618
:1059C0001A2001215B1B01241E1C49005B00002ED4
:1059D00001DBAB4201D35B1B214301380028F3D12B
:1059E000581E83410B431D1C019C7F34002CCBDDD2
:1059F0006B0704D00F232B40042B00D004352B0160
:105A000004D5019A314B8032141C1D40FE2C07DD59
:105A10004B460121FF241940002364E7251CAAE717
:105A200001214A46AB015B0AE4B211405BE7019AEF
:105A30008946013A01921B200021C4E71D4207D08C
:105A400023435B025B0A391C4CE700256302ABD59C
:105A50008023DB032B435B025B0A514642E7032BA7
:105A600025D0012BC0D101210024014000233AE7B9
:105A7000291CD9402B1C019A9E3293405D1EAB41DC
:105A80000B435A0704D00F221A40042A00D00433D3
:105A90005A0105D54B46012101241940002322E774
:105AA00001214A469B015B0A114000241BE7802329
:105AB00001214A46DB032B435B020A405B0A111CAF
:105AC00010E7C046206A0000606A0000FFFFFFF791
:105AD000F0B55F4656464D464446F0B44502460092
:105AE000C40F83B00F1C6D0A360EA34645D0FF2E9F
:105AF00025D080231B041D4300239A46ED007F3EE2
:105B000001937B025B0A98467800FB0F000E9946D2
:105B100040D0FF2838D0802342461B041343DB00CB
:105B2000984600237F384A46019F30186240411C46
:105B30001F430F2F69D87D4EBF00F659B746002D81
:105B400045D108230193063B9A46DAE7934653462C
:105B5000022B2FD15B46012400251C40FF236D0240
:105B6000DB056D0AE4071D432543281C03B03CBC3C
:105B700090469946A246AB46F0BD002D2CD1042399
:105B80000193033B9A46BCE743465A4253410322E2
:105B9000D31AC8E742460123002AC4D0404600F089
:105BA000E9FA4246431F9A4076235B42181A904610
:105BB0000023B8E7032B00D1ADE0012B00D08CE02F
:105BC0005B4654461C40E4B200230025C7E70C2383
:105BD0000193093B9A4694E7281C00F0CBFA7626FD
:105BE000431F9D4000237642361A01939A4688E768
:105BF00080250024ED03FF23B1E74546CB469A46B6
:105C0000A5E7454693469A46A1E743462C041B0C5C
:105C10009C46230C444626041C1C360C2F0C744353
:105C2000351C66467D4373437743EB18260C9E195B
:105C3000B54203D980235B029C46674424043304A5
:105C4000240C1B199D016C1EA5419B0E360C2B4389
:105C5000BD19AD011D432B0104D5012368081D406A
:105C60000543081C031C7F33002B2CDD690704D07F
:105C70000F212940042900D00435290103D52C4BDC
:105C80001D40031C8033FE2B17DD0124FF2314402D
:105C9000002564E78020C003054209D04346034243
:105CA00006D1454605436D026D0A4C46FF2356E773
:105CB00005436D026D0AFF2351E70124AD016D0A12
:105CC000DBB214404BE77E235B421B1A1B2B07DD24
:105CD000012400231440002541E7081C5A46C1E76F
:105CE0009E30291C8540D940681E85410D436B07B5
:105CF00004D00F232B40042B00D004356B0104D5B6
:105D0000012401231440002529E70124AD016D0A77
:105D10001440002323E78023DB031D4301245B465B
:105D20006D0223401C1C6D0AFF2318E7A06A0000C7
:105D3000FFFFFFF7F8B54A00430244004D02C00FD1
:105D4000240E061C9B09120EC90FAD09FF2A00D1B3
:105D500075E001277940884250D0A01A002800DC65
:105D60008FE0002A1ED1002D00D075E05A0704D024
:105D70000F221A40042A00D0043380220120D204CA
:105D80001A403040002A32D00134FF2C00D184E088
:105D90009B015B0AE4B25B02E4055B0A2343C00794
:105DA0001843F8BDFF2CE1D08022D20415431B28F4
:105DB0007ADD01255B1B5A015DD59B019F09381CCB
:105DC00000F0D8F905388740844269DC001B1F24A5
:105DD0003A1C431C201ADA408740131C7C1EA74142
:105DE00000243B43C2E7131E45D100230020DB08FB
:105DF000FF2C28D05B025B0AE4B2CCE7A11A002991
:105E00005BDD002A2ED0FF2CB0D08022D2041543B7
:105E10001B2974DC2F1C2022CF40511A8D40691E93
:105E20008D413D435B195A0125D50134FF2C74D0B7
:105E300001217E4A194013405B080B4396E7002D71
:105E400000D088E785E7002B27D08022D2031343B8
:105E50005B025B0AFF249EE701380028AAD0FF2CD2
:105E6000A5D183E7002D00D180E701390029D9D0E1
:105E7000FF2CCDD17AE75A0700D079E701203040D6
:105E8000B5E7002825D1621CD2B2012A55DD5F1B7F
:105E90007A012DD5EF1A0E1C91E7FF2400237AE733
:105EA000624B241A3B4061E7291C2022C140101A92
:105EB0008540681E85410D437CE7002946D1621C60
:105EC000D1B201292BDDFF2A26D0EB185B08141C68
:105ED0004CE7002C15D0FF2A1AD08024E40440425D
:105EE00023431B284DDD0123EB1A141C0E1C62E713
:105EF000002F00D063E700230020002477E701256E
:105F000090E7002B39D0C0430028EDD0FF2AE8D11C
:105F10002B1CFF240E1C29E7FF24002367E7002C1D
:105F20005AD1002B7FD0002D00D11FE75B195A01F9
:105F3000A1D53E4A0134134018E7002C15D1002B9F
:105F40002FD1002D5ED02B1C0E1C0FE7002C21D171
:105F5000002B54D0C943002904D0FF2A4CD01B2960
:105F600058DD01235B19141C5DE7002B23D1002DA4
:105F70004BD02B1C0E1CFF24F8E62B1C141C0E1CF3
:105F8000F4E61E1C2024C640201A8340581E83417C
:105F90003343A9E7FF2A2FD08024E4044942234356
:105FA000DDE7002D00D1E1E65A1B500100D41AE7CD
:105FB000EB1A0E1CDAE6FF24002D00D1D6E6802273
:105FC000DB08D203134204D0ED08154201D12B1C8B
:105FD0000E1CDB00FF24C9E6002B0DD0FF24002D92
:105FE00000D1C3E68022DB08D2031342F1D0ED08D2
:105FF0001542EED12B1CECE72B1CFF24B6E62B1C24
:10600000141CB3E6231C0020F1E6802300209B042F
:10601000FF24ECE61F1C2024CF40611A8B40591E40
:106020008B413B439EE72B1CA0E6C046FFFFFFFBD6
:106030004202510A4200C30F120E00207E2A0DDDDB
:106040009D2A0CDC802000040143952A0ADC96205E
:10605000821AD1400A1C58424240D0187047034A65
:106060009818FBE7963A91400A1CF4E7FFFFFF7F80
:1060700010B5041E35D000F07DF89E21091A96292E
:1060800009DC082830DD021C231C083A93405B021F
:106090005B0AC8B220E099290CDD0522231C121AE4
:1060A000D3401A1C031C1B339C40231C5C1EA341C1
:1060B00013431C1C052801DD431F9C400F4B23404C
:1060C000620704D00F221440042C00D004335A017C
:1060D0000ED49B015B0AC8B25B025B0AC005184381
:1060E00010BD00200023F7E763025B0AC8B2F3E7A4
:1060F0009F21024A091A1340EBE7C046FFFFFFFB4E
:106100008446081C6146FFE71FB500F0C5F800286B
:1061100001D40021C8421FBD10B500F049F840422B
:10612000013010BD10B500F0B7F8002801DB0020E9
:1061300010BD012010BDC04610B500F0ADF800281C
:1061400001DD002010BD012010BDC04610B500F0DB
:1061500059F8002801DC002010BD012010BDC04608
:1061600010B500F04FF8002801DA002010BD012022
:1061700010BDC0461C2101231B04984201D3000C12
:1061800010391B0A984201D3000A08391B099842AA
:1061900001D30009043902A2105C40187047C046C0
:1061A00004030202010101010000000000000000E0
:1061B000430270B542004C005D0AC30F4802120E44
:1061C000460A240EC90FFF2A05D0FF2C08D0012053
:1061D000A2420BD070BD0120002DFBD1FF2CF6D1C7
:1061E0000120002EF6D10120A242F3D1B542F1D117
:1061F0008B4205D0002AEDD1281C431E9841E9E7C7
:106200000020E7E7F0B543024D024A0044005E0A71
:10621000240EC30F6D0A120EC90FFF2C0DD0FF2ADA
:1062200031D0002C0DD177427741002A23D1002DA7
:1062300021D10020002F0BD107E0002E28D1FF2A0A
:1062400021D0002A05D08B4207D0584201231843A1
:10625000F0BD002DF9D08B42F7D19442F5DC04DB80
:10626000AE42F2D80020AE42F2D258424341012061
:106270005B421843ECE7002FE5D048424141012042
:1062800049420843E4E7002D02D1002CCBD0DAE7E5
:1062900002204042DCE7C0464302F0B542004C0019
:1062A0005E0AC30F4802120E450A240EC90FFF2AC8
:1062B0000FD0FF2C1AD0002A10D177427741002C42
:1062C00029D0002F17D048424141012049420843BC
:1062D0000BE00220002E08D1FF2C07D0002C0AD1A1
:1062E000002D08D1584201231843F0BD0220002D93
:1062F000FBD1002AE1D08B42F4D1A242F2DC04DBD4
:10630000AE42EFD80020AE42EFD2584243410120C6
:106310005B421843E9E7002DD3D10020002FE4D1E0
:10632000E0E7C0460E4B70B500251E1C0D4CE41A6C
:10633000A410A54204D0AB00F35898470135F8E704
:1063400000F028F8084B00251E1C084CE41AA41085
:10635000A54204D0AB00F35898470135F8E770BD6B
:10636000140000201400002014000020240000204D
:10637000002310B5934203D0CC5CC4540133F9E739
:1063800010BD031C8218934202D019700133FAE742
:1063900070470000F8B5C046F8BC08BC9E46704780
:1063A000F8B5C046F8BC08BC9E4670470000000027
:1063B0000B000000020000001C000000FF00FFFFB7
:1063C000FFFF0B00000000000A00000002000000B8
:1063D0001C000000FF00FFFFFFFF0A00000000009C
:1063E00008000000040000001C000000FF00000086
:1063F0000000100000000000090000000400000080
:106400001C000000FF000100010009000000000066
:106410000E000000040000001C000000FF0000034C
:1064200000030E00000000000F0000000400000048
:106430001C000000FF00010301030F00000000002A
:1064400014000000050000001C000000FF00060012
:106450000600040000000000150000000500000018
:106460001C000000FF0007000700050000000000FE
:1064700006000000040000001C000000FF000001F6
:1064800000010400000000000700000004000000FC
:106490001C000000FF0001010101050000000000D8
:1064A00012000000040000001C000000FF000003B8
:1064B00000030200000000001000000004000000C3
:1064C0001C000000FF0000020002000000000000AD
:1064D00013000000040000001C000000FF00010386
:1064E0000103030000000000110000000400000090
:1064F0000C000000FF000102FFFF0100FF00000090
:1065000000000000FF00000000000000FF00FFFF8F
:10651000FFFFFF000000000003000000010000007A
:1065200002000000FF00FFFFFFFFFF00000000006F
:10653000160000000200000004000000FF00FFFF42
:10654000FFFF06000000000017000000020000002E
:1065500004000000FF00FFFFFFFF07000000000035
:106560000C0000000300000004000000FF00FFFF1B
:10657000FFFF0C00FF00000000000000FF00000013
:1065800000000000FF00FFFFFFFFFF000100000010
:106590000B0000000300000004000000FF00FFFFEC
:1065A000FFFF0B00010000000A00000003000000D4
:1065B00004000000FF00FFFFFFFF0A00FF000000D3
:1065C00000000000FF00000000000000FF00FFFFCF
:1065D000FFFFFF00FF00000000000000FF000000C0
:1065E00000000000FF00FFFFFFFFFF0000000000B1
:1065F0000200000001000000020000000000FFFF98
:10660000FFFF020001000000080000000100000080
:10661000020000000200FFFFFFFF08000100000071
:106620000900000001000000020000000300FFFF5D
:10663000FFFF09000000000004000000010000004E
:10664000020000000400FFFFFFFF04000000000044
:106650000500000001000000020000000500FFFF2F
:10666000FFFF050000000000020000000100000024
:10667000020000000A00FFFFFFFF0200010000000F
:10668000030000000B00000004000000FF00FFFFFB
:10669000FFFFFF00000000001B0000000B000000D7
:1066A00004000000FF00FFFFFFFFFF0000000000EC
:1066B0001C0000000600000000000000FF00FFFFBB
:1066C000FFFFFF00000000001800000006000000AF
:1066D00000000000FF00FFFFFFFFFF0000000000C0
:1066E000190000000600000000000000FF00FFFF8E
:1066F000FFFFFF0001000000160000000300000083
:1067000000000000FF00FFFFFFFFFF00010000008E
:10671000170000000300000000000000FF00FFFF62
:10672000FFFFFF0000000000160000000200000054
:1067300000000000FF00FFFFFFFFFF00000000005F
:10674000170000000200000000000000FF00FFFF33
